:020000040000FA
:020000000528D1
:040002000034003492
:06000A0018202B208515D3
:1000100049307B206E307B2066307B206F307B2028
:1000200050307B2049307B2043307B200000162855
:100030008316051085100511061286120613861305
:1000400085118312051085100511061286120613FC
:10005000861385110800831203308D00061686165C
:1000600005158020051180208D0B302806120515FE
:10007000802005118020283076200130762008006D
:10008000851005100511061286120613861300004E
:10009000851083168617831205150000861B4E28CF
:1000A0000511831686138312080005150000000051
:1000B000051108008C0006120C1A061686128C1AFE
:1000C000861606130C1B061786138C1B86175520E5
:1000D00006120C18061686128C18861606130C19B2
:1000E000061786138C1986175520080040208510A6
:1000F00005105A2008004020851005145A200800D9
:10010000C8308E0007308F008F0B84288E0B82281A
:020110000800E5
:02400E00F13F80
:00000001FF
