:020000040000FA
:020000000528D1
:040002000034003492
:08000800212807309F00831638
:1000100005140610861086118112811101158114B4
:1000200001148312D93081008B160B118B170B171B
:100030008001051C1E280614861019280610861437
:1000400019288001F03081000B1109000000000028
:10005000000000000000000008000000A430392863
:100060000000403039281F30392800000E30392870
:1000700005308100810B3A280800C8304C286430D4
:100080004C2832304C2814304C280A304C2805308B
:100090004C2802304C2801308200F93081000000E9
:1000A000810B4F28820B4D280800C830602864302F
:1000B000602832306028143060280A30602805300B
:1000C000830064308200F93081000000810B6528D4
:0A00D000820B6328830B61280800EF
:02400E00213F50
:00000001FF
