:020000040000FA
:10000000012807309F00831686010514851005110D
:1000100083128001851405110008232086004920E1
:1000200049204920051C0C28800A0A300002031DC3
:100030001B280515851010300002031D0C288001B7
:10004000851405110C2882073F3406345B344F3485
:1000500066346D347D3407347F34673477347C34D0
:1000600039345E347934713449204920492049209B
:100070004920492049204920492049204920492038
:100080004920492049204920492049204920492028
:100090000800C8304D2832304D28A100B430A000EF
:1000A0000000A00B6328A10B4E28080000000000F0
:1000B00000000A30602803306028033060280530D3
:1000C000A100A530A000A00B6328A10B61280800A7
:1000D000A43000007428513074281F3074280E306A
:1000E0000000742806307428A000A00B75280800B2
:0400F0000000080004
:0400F40000340034A0
:02400E00213F50
:00000001FF
