:020000040000FA
:1000000001288316861106143E309200831297153C
:100010001715971417141214921012158001061C4C
:100020000F283D20061C0F28800A3E300002031DC9
:100030001B280030800000089500171697120F2823
:1000400000000000000000000000000008000000A8
:10005000A43033280000403033281F3033280000FC
:100060000E30332805308100810B34280800C83059
:1000700046286430462832304628143046280A3054
:100080004628053046280230462801308200F930E3
:1000900081000000810B4928820B47280800C830E6
:1000A0005A2864305A2832305A2814305A280A30D4
:1000B0005A280530830064308200F9308100000046
:0E00C000810B5F28820B5D28830B5B280800F4
:0200CE000034FC
:0200D0000034FA
:02400E00213F50
:00000001FF
