:020000040000FA
:020000000528D1
:040002000034003492
:0800080020288316861106145E
:10001000861006113E30920083128B170B170B16B9
:100020008B101F30950017169712971517159714F8
:1000300017141214921012158001861406111D282F
:10004000800A3E300002031D27280030800000088F
:1000500095008B1009000000000000000000000067
:10006000000008000000A4303E28000040303E2878
:100070001F303E2800000E303E2805308100810BE5
:100080003F280800C83051286430512832305128A8
:10009000143051280A305128053051280230512897
:1000A00001308200F93081000000810B5428820B5E
:1000B00052280800C8306528643065283230652829
:1000C000143065280A3065280530830064308200CA
:1000D000F93081000000810B6A28820B6828830BAD
:0400E0006628080086
:02400E00213F50
:00000001FF
