:020000040000FA
:020000000528D1
:040002000034003492
:06000A0007309F001A20E0
:100010002D20851549307D206E307D2066307D2075
:100020006F307D2050307D2049307D2043307D2051
:100030000000182883160510851005110612861277
:1000400006138613851183120510851005110612FB
:1000500086120613861385110800831203308D0063
:10006000061686160515A3200511A3208D0B322830
:1000700006120515A3200511A32028307820013091
:100080007820080085100510051106128612061347
:10009000861300008510831686178312051500004D
:1000A000861B502805118316861383120800051538
:1000B00000000000051108008C0006120C1A06163C
:1000C00086128C1A861606130C1B061786138C1BB9
:1000D0008617572006120C18061686128C188616DC
:1000E00006130C19061786138C198617572008005B
:1000F0004220851005105C20080042208510051460
:100100005C2008000000000000000000000000006B
:1001100008000000A43095280000403095281F30CA
:10012000952800000E30952805308000800B962819
:100130000800C830A8286430A8283230A828143015
:10014000A8280A30A8280530A8280230A82801309D
:100150008100F93080000000800BAB28810BA928BA
:100160000800C830BC286430BC283230BC281430A9
:10017000BC280A30BC280530820064308100F93088
:1001800080000000800BC128810BBF28820BBD2896
:02019000080065
:02400E00253F4C
:00000001FF
